{
  "_format": "hh-sol-artifact-1",
  "contractName": "DAAToken",
  "sourceName": "contracts/DAAToken.sol",
  "abi": [
    {
      "inputs": [],
      "stateMutability": "nonpayable",
      "type": "constructor"
    },
    {
      "inputs": [
        {
          "internalType": "address",
          "name": "spender",
          "type": "address"
        },
        {
          "internalType": "uint256",
          "name": "allowance",
          "type": "uint256"
        },
        {
          "internalType": "uint256",
          "name": "needed",
          "type": "uint256"
        }
      ],
      "name": "ERC20InsufficientAllowance",
      "type": "error"
    },
    {
      "inputs": [
        {
          "internalType": "address",
          "name": "sender",
          "type": "address"
        },
        {
          "internalType": "uint256",
          "name": "balance",
          "type": "uint256"
        },
        {
          "internalType": "uint256",
          "name": "needed",
          "type": "uint256"
        }
      ],
      "name": "ERC20InsufficientBalance",
      "type": "error"
    },
    {
      "inputs": [
        {
          "internalType": "address",
          "name": "approver",
          "type": "address"
        }
      ],
      "name": "ERC20InvalidApprover",
      "type": "error"
    },
    {
      "inputs": [
        {
          "internalType": "address",
          "name": "receiver",
          "type": "address"
        }
      ],
      "name": "ERC20InvalidReceiver",
      "type": "error"
    },
    {
      "inputs": [
        {
          "internalType": "address",
          "name": "sender",
          "type": "address"
        }
      ],
      "name": "ERC20InvalidSender",
      "type": "error"
    },
    {
      "inputs": [
        {
          "internalType": "address",
          "name": "spender",
          "type": "address"
        }
      ],
      "name": "ERC20InvalidSpender",
      "type": "error"
    },
    {
      "anonymous": false,
      "inputs": [
        {
          "indexed": true,
          "internalType": "address",
          "name": "owner",
          "type": "address"
        },
        {
          "indexed": true,
          "internalType": "address",
          "name": "spender",
          "type": "address"
        },
        {
          "indexed": false,
          "internalType": "uint256",
          "name": "value",
          "type": "uint256"
        }
      ],
      "name": "Approval",
      "type": "event"
    },
    {
      "anonymous": false,
      "inputs": [
        {
          "indexed": true,
          "internalType": "address",
          "name": "from",
          "type": "address"
        },
        {
          "indexed": true,
          "internalType": "address",
          "name": "to",
          "type": "address"
        },
        {
          "indexed": false,
          "internalType": "uint256",
          "name": "value",
          "type": "uint256"
        }
      ],
      "name": "Transfer",
      "type": "event"
    },
    {
      "anonymous": false,
      "inputs": [
        {
          "indexed": true,
          "internalType": "address",
          "name": "from",
          "type": "address"
        },
        {
          "indexed": true,
          "internalType": "address",
          "name": "to",
          "type": "address"
        },
        {
          "indexed": false,
          "internalType": "uint256",
          "name": "value",
          "type": "uint256"
        },
        {
          "indexed": false,
          "internalType": "uint256",
          "name": "timestamp",
          "type": "uint256"
        }
      ],
      "name": "TransferInfo",
      "type": "event"
    },
    {
      "inputs": [],
      "name": "admin",
      "outputs": [
        {
          "internalType": "address",
          "name": "",
          "type": "address"
        }
      ],
      "stateMutability": "view",
      "type": "function"
    },
    {
      "inputs": [
        {
          "internalType": "address",
          "name": "owner",
          "type": "address"
        },
        {
          "internalType": "address",
          "name": "spender",
          "type": "address"
        }
      ],
      "name": "allowance",
      "outputs": [
        {
          "internalType": "uint256",
          "name": "",
          "type": "uint256"
        }
      ],
      "stateMutability": "view",
      "type": "function"
    },
    {
      "inputs": [
        {
          "internalType": "address",
          "name": "spender",
          "type": "address"
        },
        {
          "internalType": "uint256",
          "name": "value",
          "type": "uint256"
        }
      ],
      "name": "approve",
      "outputs": [
        {
          "internalType": "bool",
          "name": "",
          "type": "bool"
        }
      ],
      "stateMutability": "nonpayable",
      "type": "function"
    },
    {
      "inputs": [
        {
          "internalType": "address",
          "name": "account",
          "type": "address"
        }
      ],
      "name": "balanceOf",
      "outputs": [
        {
          "internalType": "uint256",
          "name": "",
          "type": "uint256"
        }
      ],
      "stateMutability": "view",
      "type": "function"
    },
    {
      "inputs": [],
      "name": "decimals",
      "outputs": [
        {
          "internalType": "uint8",
          "name": "",
          "type": "uint8"
        }
      ],
      "stateMutability": "view",
      "type": "function"
    },
    {
      "inputs": [],
      "name": "getTransactionReceiver",
      "outputs": [
        {
          "internalType": "address",
          "name": "",
          "type": "address"
        }
      ],
      "stateMutability": "view",
      "type": "function"
    },
    {
      "inputs": [],
      "name": "getTransactionSender",
      "outputs": [
        {
          "internalType": "address",
          "name": "",
          "type": "address"
        }
      ],
      "stateMutability": "view",
      "type": "function"
    },
    {
      "inputs": [],
      "name": "latestTransferHumanReadable",
      "outputs": [
        {
          "internalType": "string",
          "name": "",
          "type": "string"
        }
      ],
      "stateMutability": "view",
      "type": "function"
    },
    {
      "inputs": [],
      "name": "latestTransferTimestamp",
      "outputs": [
        {
          "internalType": "uint256",
          "name": "",
          "type": "uint256"
        }
      ],
      "stateMutability": "view",
      "type": "function"
    },
    {
      "inputs": [],
      "name": "name",
      "outputs": [
        {
          "internalType": "string",
          "name": "",
          "type": "string"
        }
      ],
      "stateMutability": "view",
      "type": "function"
    },
    {
      "inputs": [],
      "name": "receiver",
      "outputs": [
        {
          "internalType": "address",
          "name": "",
          "type": "address"
        }
      ],
      "stateMutability": "view",
      "type": "function"
    },
    {
      "inputs": [],
      "name": "sender",
      "outputs": [
        {
          "internalType": "address",
          "name": "",
          "type": "address"
        }
      ],
      "stateMutability": "view",
      "type": "function"
    },
    {
      "inputs": [],
      "name": "symbol",
      "outputs": [
        {
          "internalType": "string",
          "name": "",
          "type": "string"
        }
      ],
      "stateMutability": "view",
      "type": "function"
    },
    {
      "inputs": [],
      "name": "totalSupply",
      "outputs": [
        {
          "internalType": "uint256",
          "name": "",
          "type": "uint256"
        }
      ],
      "stateMutability": "view",
      "type": "function"
    },
    {
      "inputs": [
        {
          "internalType": "address",
          "name": "recipient",
          "type": "address"
        },
        {
          "internalType": "uint256",
          "name": "amount",
          "type": "uint256"
        }
      ],
      "name": "transfer",
      "outputs": [
        {
          "internalType": "bool",
          "name": "",
          "type": "bool"
        }
      ],
      "stateMutability": "nonpayable",
      "type": "function"
    },
    {
      "inputs": [
        {
          "internalType": "address",
          "name": "from",
          "type": "address"
        },
        {
          "internalType": "address",
          "name": "to",
          "type": "address"
        },
        {
          "internalType": "uint256",
          "name": "value",
          "type": "uint256"
        }
      ],
      "name": "transferFrom",
      "outputs": [
        {
          "internalType": "bool",
          "name": "",
          "type": "bool"
        }
      ],
      "stateMutability": "nonpayable",
      "type": "function"
    }
  ],
  "bytecode": "0x60806040523480156200001157600080fd5b506040518060400160405280600e81526020017f414954552d4441412d546f6b656e0000000000000000000000000000000000008152506040518060400160405280600381526020017f444141000000000000000000000000000000000000000000000000000000000081525081600390816200008f919062000670565b508060049081620000a1919062000670565b5050506000620000b66200013060201b60201c565b600a620000c49190620008e7565b621e8480620000d4919062000938565b9050620000e833826200013960201b60201c565b33600560006101000a81548173ffffffffffffffffffffffffffffffffffffffff021916908373ffffffffffffffffffffffffffffffffffffffff1602179055505062000a8b565b60006012905090565b600073ffffffffffffffffffffffffffffffffffffffff168273ffffffffffffffffffffffffffffffffffffffff1603620001ae5760006040517fec442f05000000000000000000000000000000000000000000000000000000008152600401620001a59190620009c8565b60405180910390fd5b620001c260008383620001c660201b60201c565b5050565b600073ffffffffffffffffffffffffffffffffffffffff168373ffffffffffffffffffffffffffffffffffffffff16036200021c5780600260008282546200020f9190620009e5565b92505081905550620002f2565b60008060008573ffffffffffffffffffffffffffffffffffffffff1673ffffffffffffffffffffffffffffffffffffffff16815260200190815260200160002054905081811015620002ab578381836040517fe450d38c000000000000000000000000000000000000000000000000000000008152600401620002a29392919062000a31565b60405180910390fd5b8181036000808673ffffffffffffffffffffffffffffffffffffffff1673ffffffffffffffffffffffffffffffffffffffff16815260200190815260200160002081905550505b600073ffffffffffffffffffffffffffffffffffffffff168273ffffffffffffffffffffffffffffffffffffffff16036200033d57806002600082825403925050819055506200038a565b806000808473ffffffffffffffffffffffffffffffffffffffff1673ffffffffffffffffffffffffffffffffffffffff168152602001908152602001600020600082825401925050819055505b8173ffffffffffffffffffffffffffffffffffffffff168373ffffffffffffffffffffffffffffffffffffffff167fddf252ad1be2c89b69c2b068fc378daa952ba7f163c4a11628f55a4df523b3ef83604051620003e9919062000a6e565b60405180910390a3505050565b600081519050919050565b7f4e487b7100000000000000000000000000000000000000000000000000000000600052604160045260246000fd5b7f4e487b7100000000000000000000000000000000000000000000000000000000600052602260045260246000fd5b600060028204905060018216806200047857607f821691505b6020821081036200048e576200048d62000430565b5b50919050565b60008190508160005260206000209050919050565b60006020601f8301049050919050565b600082821b905092915050565b600060088302620004f87fffffffffffffffffffffffffffffffffffffffffffffffffffffffffffffffff82620004b9565b620005048683620004b9565b95508019841693508086168417925050509392505050565b6000819050919050565b6000819050919050565b6000620005516200054b62000545846200051c565b62000526565b6200051c565b9050919050565b6000819050919050565b6200056d8362000530565b620005856200057c8262000558565b848454620004c6565b825550505050565b600090565b6200059c6200058d565b620005a981848462000562565b505050565b5b81811015620005d157620005c560008262000592565b600181019050620005af565b5050565b601f8211156200062057620005ea8162000494565b620005f584620004a9565b8101602085101562000605578190505b6200061d6200061485620004a9565b830182620005ae565b50505b505050565b600082821c905092915050565b6000620006456000198460080262000625565b1980831691505092915050565b600062000660838362000632565b9150826002028217905092915050565b6200067b82620003f6565b67ffffffffffffffff81111562000697576200069662000401565b5b620006a382546200045f565b620006b0828285620005d5565b600060209050601f831160018114620006e85760008415620006d3578287015190505b620006df858262000652565b8655506200074f565b601f198416620006f88662000494565b60005b828110156200072257848901518255600182019150602085019450602081019050620006fb565b868310156200074257848901516200073e601f89168262000632565b8355505b6001600288020188555050505b505050505050565b7f4e487b7100000000000000000000000000000000000000000000000000000000600052601160045260246000fd5b60008160011c9050919050565b6000808291508390505b6001851115620007e557808604811115620007bd57620007bc62000757565b5b6001851615620007cd5780820291505b8081029050620007dd8562000786565b94506200079d565b94509492505050565b600082620008005760019050620008d3565b81620008105760009050620008d3565b816001811462000829576002811462000834576200086a565b6001915050620008d3565b60ff84111562000849576200084862000757565b5b8360020a91508482111562000863576200086262000757565b5b50620008d3565b5060208310610133831016604e8410600b8410161715620008a45782820a9050838111156200089e576200089d62000757565b5b620008d3565b620008b3848484600162000793565b92509050818404811115620008cd57620008cc62000757565b5b81810290505b9392505050565b600060ff82169050919050565b6000620008f4826200051c565b91506200090183620008da565b9250620009307fffffffffffffffffffffffffffffffffffffffffffffffffffffffffffffffff8484620007ee565b905092915050565b600062000945826200051c565b915062000952836200051c565b925082820262000962816200051c565b915082820484148315176200097c576200097b62000757565b5b5092915050565b600073ffffffffffffffffffffffffffffffffffffffff82169050919050565b6000620009b08262000983565b9050919050565b620009c281620009a3565b82525050565b6000602082019050620009df6000830184620009b7565b92915050565b6000620009f2826200051c565b9150620009ff836200051c565b925082820190508082111562000a1a5762000a1962000757565b5b92915050565b62000a2b816200051c565b82525050565b600060608201905062000a486000830186620009b7565b62000a57602083018562000a20565b62000a66604083018462000a20565b949350505050565b600060208201905062000a85600083018462000a20565b92915050565b6116018062000a9b6000396000f3fe608060405234801561001057600080fd5b50600436106101005760003560e01c8063841b39fc11610097578063bead3f5011610066578063bead3f50146102b5578063dd62ed3e146102d3578063f7260d3e14610303578063f851a4401461032157610100565b8063841b39fc1461022b57806395d89b41146102495780639cb641dd14610267578063a9059cbb1461028557610100565b806323b872dd116100d357806323b872dd1461018f578063313ce567146101bf57806367e404ce146101dd57806370a08231146101fb57610100565b8063035d65621461010557806306fdde0314610123578063095ea7b31461014157806318160ddd14610171575b600080fd5b61010d61033f565b60405161011a9190610fb3565b60405180910390f35b61012b610351565b6040516101389190610fb3565b60405180910390f35b61015b6004803603810190610156919061106e565b6103e3565b60405161016891906110c9565b60405180910390f35b610179610406565b60405161018691906110f3565b60405180910390f35b6101a960048036038101906101a4919061110e565b610410565b6040516101b691906110c9565b60405180910390f35b6101c761043f565b6040516101d4919061117d565b60405180910390f35b6101e5610448565b6040516101f291906111a7565b60405180910390f35b610215600480360381019061021091906111c2565b61046e565b60405161022291906110f3565b60405180910390f35b6102336104b6565b60405161024091906111a7565b60405180910390f35b6102516104e0565b60405161025e9190610fb3565b60405180910390f35b61026f610572565b60405161027c91906110f3565b60405180910390f35b61029f600480360381019061029a919061106e565b610578565b6040516102ac91906110c9565b60405180910390f35b6102bd61068e565b6040516102ca91906111a7565b60405180910390f35b6102ed60048036038101906102e891906111ef565b6106b8565b6040516102fa91906110f3565b60405180910390f35b61030b61073f565b60405161031891906111a7565b60405180910390f35b610329610765565b60405161033691906111a7565b60405180910390f35b606061034c60085461078b565b905090565b6060600380546103609061125e565b80601f016020809104026020016040519081016040528092919081815260200182805461038c9061125e565b80156103d95780601f106103ae576101008083540402835291602001916103d9565b820191906000526020600020905b8154815290600101906020018083116103bc57829003601f168201915b5050505050905090565b6000806103ee610802565b90506103fb81858561080a565b600191505092915050565b6000600254905090565b60008061041b610802565b905061042885828561081c565b6104338585856108b0565b60019150509392505050565b60006012905090565b600760009054906101000a900473ffffffffffffffffffffffffffffffffffffffff1681565b60008060008373ffffffffffffffffffffffffffffffffffffffff1673ffffffffffffffffffffffffffffffffffffffff168152602001908152602001600020549050919050565b6000600660009054906101000a900473ffffffffffffffffffffffffffffffffffffffff16905090565b6060600480546104ef9061125e565b80601f016020809104026020016040519081016040528092919081815260200182805461051b9061125e565b80156105685780601f1061053d57610100808354040283529160200191610568565b820191906000526020600020905b81548152906001019060200180831161054b57829003601f168201915b5050505050905090565b60085481565b60008061058584846109a4565b905080156106845733600760006101000a81548173ffffffffffffffffffffffffffffffffffffffff021916908373ffffffffffffffffffffffffffffffffffffffff16021790555083600660006101000a81548173ffffffffffffffffffffffffffffffffffffffff021916908373ffffffffffffffffffffffffffffffffffffffff16021790555060004290508473ffffffffffffffffffffffffffffffffffffffff163373ffffffffffffffffffffffffffffffffffffffff167f6f677712e2b248fc051cf6aa738a10e5f547b760d9e5adc66516ad7d2bf4d363868460405161067392919061128f565b60405180910390a380600881905550505b8091505092915050565b6000600760009054906101000a900473ffffffffffffffffffffffffffffffffffffffff16905090565b6000600160008473ffffffffffffffffffffffffffffffffffffffff1673ffffffffffffffffffffffffffffffffffffffff16815260200190815260200160002060008373ffffffffffffffffffffffffffffffffffffffff1673ffffffffffffffffffffffffffffffffffffffff16815260200190815260200160002054905092915050565b600660009054906101000a900473ffffffffffffffffffffffffffffffffffffffff1681565b600560009054906101000a900473ffffffffffffffffffffffffffffffffffffffff1681565b606060006018610e108461079f9190611316565b6107a99190611347565b90506000603c80856107bb9190611316565b6107c59190611347565b90506107d0826109c7565b6107d9826109c7565b6040516020016107ea92919061144c565b60405160208183030381529060405292505050919050565b600033905090565b6108178383836001610b27565b505050565b600061082884846106b8565b90507fffffffffffffffffffffffffffffffffffffffffffffffffffffffffffffffff81146108aa578181101561089a578281836040517ffb8f41b200000000000000000000000000000000000000000000000000000000815260040161089193929190611486565b60405180910390fd5b6108a984848484036000610b27565b5b50505050565b600073ffffffffffffffffffffffffffffffffffffffff168373ffffffffffffffffffffffffffffffffffffffff16036109225760006040517f96c6fd1e00000000000000000000000000000000000000000000000000000000815260040161091991906111a7565b60405180910390fd5b600073ffffffffffffffffffffffffffffffffffffffff168273ffffffffffffffffffffffffffffffffffffffff16036109945760006040517fec442f0500000000000000000000000000000000000000000000000000000000815260040161098b91906111a7565b60405180910390fd5b61099f838383610cfe565b505050565b6000806109af610802565b90506109bc8185856108b0565b600191505092915050565b606060008203610a0e576040518060400160405280600181526020017f30000000000000000000000000000000000000000000000000000000000000008152509050610b22565b600082905060005b60008214610a40578080610a29906114bd565b915050600a82610a399190611316565b9150610a16565b60008167ffffffffffffffff811115610a5c57610a5b611505565b5b6040519080825280601f01601f191660200182016040528015610a8e5781602001600182028036833780820191505090505b5090505b60008514610b1b57600182610aa79190611534565b9150600a85610ab69190611347565b6030610ac29190611568565b60f81b818381518110610ad857610ad761159c565b5b60200101907effffffffffffffffffffffffffffffffffffffffffffffffffffffffffffff1916908160001a905350600a85610b149190611316565b9450610a92565b8093505050505b919050565b600073ffffffffffffffffffffffffffffffffffffffff168473ffffffffffffffffffffffffffffffffffffffff1603610b995760006040517fe602df05000000000000000000000000000000000000000000000000000000008152600401610b9091906111a7565b60405180910390fd5b600073ffffffffffffffffffffffffffffffffffffffff168373ffffffffffffffffffffffffffffffffffffffff1603610c0b5760006040517f94280d62000000000000000000000000000000000000000000000000000000008152600401610c0291906111a7565b60405180910390fd5b81600160008673ffffffffffffffffffffffffffffffffffffffff1673ffffffffffffffffffffffffffffffffffffffff16815260200190815260200160002060008573ffffffffffffffffffffffffffffffffffffffff1673ffffffffffffffffffffffffffffffffffffffff168152602001908152602001600020819055508015610cf8578273ffffffffffffffffffffffffffffffffffffffff168473ffffffffffffffffffffffffffffffffffffffff167f8c5be1e5ebec7d5bd14f71427d1e84f3dd0314c0f7b2291e5b200ac8c7c3b92584604051610cef91906110f3565b60405180910390a35b50505050565b600073ffffffffffffffffffffffffffffffffffffffff168373ffffffffffffffffffffffffffffffffffffffff1603610d50578060026000828254610d449190611568565b92505081905550610e23565b60008060008573ffffffffffffffffffffffffffffffffffffffff1673ffffffffffffffffffffffffffffffffffffffff16815260200190815260200160002054905081811015610ddc578381836040517fe450d38c000000000000000000000000000000000000000000000000000000008152600401610dd393929190611486565b60405180910390fd5b8181036000808673ffffffffffffffffffffffffffffffffffffffff1673ffffffffffffffffffffffffffffffffffffffff16815260200190815260200160002081905550505b600073ffffffffffffffffffffffffffffffffffffffff168273ffffffffffffffffffffffffffffffffffffffff1603610e6c5780600260008282540392505081905550610eb9565b806000808473ffffffffffffffffffffffffffffffffffffffff1673ffffffffffffffffffffffffffffffffffffffff168152602001908152602001600020600082825401925050819055505b8173ffffffffffffffffffffffffffffffffffffffff168373ffffffffffffffffffffffffffffffffffffffff167fddf252ad1be2c89b69c2b068fc378daa952ba7f163c4a11628f55a4df523b3ef83604051610f1691906110f3565b60405180910390a3505050565b600081519050919050565b600082825260208201905092915050565b60005b83811015610f5d578082015181840152602081019050610f42565b60008484015250505050565b6000601f19601f8301169050919050565b6000610f8582610f23565b610f8f8185610f2e565b9350610f9f818560208601610f3f565b610fa881610f69565b840191505092915050565b60006020820190508181036000830152610fcd8184610f7a565b905092915050565b600080fd5b600073ffffffffffffffffffffffffffffffffffffffff82169050919050565b600061100582610fda565b9050919050565b61101581610ffa565b811461102057600080fd5b50565b6000813590506110328161100c565b92915050565b6000819050919050565b61104b81611038565b811461105657600080fd5b50565b60008135905061106881611042565b92915050565b6000806040838503121561108557611084610fd5565b5b600061109385828601611023565b92505060206110a485828601611059565b9150509250929050565b60008115159050919050565b6110c3816110ae565b82525050565b60006020820190506110de60008301846110ba565b92915050565b6110ed81611038565b82525050565b600060208201905061110860008301846110e4565b92915050565b60008060006060848603121561112757611126610fd5565b5b600061113586828701611023565b935050602061114686828701611023565b925050604061115786828701611059565b9150509250925092565b600060ff82169050919050565b61117781611161565b82525050565b6000602082019050611192600083018461116e565b92915050565b6111a181610ffa565b82525050565b60006020820190506111bc6000830184611198565b92915050565b6000602082840312156111d8576111d7610fd5565b5b60006111e684828501611023565b91505092915050565b6000806040838503121561120657611205610fd5565b5b600061121485828601611023565b925050602061122585828601611023565b9150509250929050565b7f4e487b7100000000000000000000000000000000000000000000000000000000600052602260045260246000fd5b6000600282049050600182168061127657607f821691505b6020821081036112895761128861122f565b5b50919050565b60006040820190506112a460008301856110e4565b6112b160208301846110e4565b9392505050565b7f4e487b7100000000000000000000000000000000000000000000000000000000600052601260045260246000fd5b7f4e487b7100000000000000000000000000000000000000000000000000000000600052601160045260246000fd5b600061132182611038565b915061132c83611038565b92508261133c5761133b6112b8565b5b828204905092915050565b600061135282611038565b915061135d83611038565b92508261136d5761136c6112b8565b5b828206905092915050565b600081905092915050565b7f4c6174657374207472616e736665722074696d657374616d703a200000000000600082015250565b60006113b9601b83611378565b91506113c482611383565b601b82019050919050565b60006113da82610f23565b6113e48185611378565b93506113f4818560208601610f3f565b80840191505092915050565b7f3a00000000000000000000000000000000000000000000000000000000000000600082015250565b6000611436600183611378565b915061144182611400565b600182019050919050565b6000611457826113ac565b915061146382856113cf565b915061146e82611429565b915061147a82846113cf565b91508190509392505050565b600060608201905061149b6000830186611198565b6114a860208301856110e4565b6114b560408301846110e4565b949350505050565b60006114c882611038565b91507fffffffffffffffffffffffffffffffffffffffffffffffffffffffffffffffff82036114fa576114f96112e7565b5b600182019050919050565b7f4e487b7100000000000000000000000000000000000000000000000000000000600052604160045260246000fd5b600061153f82611038565b915061154a83611038565b9250828203905081811115611562576115616112e7565b5b92915050565b600061157382611038565b915061157e83611038565b9250828201905080821115611596576115956112e7565b5b92915050565b7f4e487b7100000000000000000000000000000000000000000000000000000000600052603260045260246000fdfea26469706673582212201169c770f129c815bd517de58077fd04ac0e941a393e5ebd61589fa4f888377f64736f6c63430008140033",
  "linkReferences": {},
  "deployedLinkReferences": {}
}