{
  "_format": "hh-sol-artifact-1",
  "contractName": "DAAToken",
  "sourceName": "contracts/DAAToken.sol",
  "abi": [
    {
      "inputs": [],
      "stateMutability": "nonpayable",
      "type": "constructor"
    },
    {
      "anonymous": false,
      "inputs": [
        {
          "indexed": true,
          "internalType": "address",
          "name": "owner",
          "type": "address"
        },
        {
          "indexed": true,
          "internalType": "address",
          "name": "spender",
          "type": "address"
        },
        {
          "indexed": false,
          "internalType": "uint256",
          "name": "value",
          "type": "uint256"
        }
      ],
      "name": "Approval",
      "type": "event"
    },
    {
      "anonymous": false,
      "inputs": [
        {
          "indexed": true,
          "internalType": "address",
          "name": "from",
          "type": "address"
        },
        {
          "indexed": true,
          "internalType": "address",
          "name": "to",
          "type": "address"
        },
        {
          "indexed": false,
          "internalType": "uint256",
          "name": "value",
          "type": "uint256"
        }
      ],
      "name": "Transfer",
      "type": "event"
    },
    {
      "anonymous": false,
      "inputs": [
        {
          "indexed": true,
          "internalType": "address",
          "name": "from",
          "type": "address"
        },
        {
          "indexed": true,
          "internalType": "address",
          "name": "to",
          "type": "address"
        },
        {
          "indexed": false,
          "internalType": "uint256",
          "name": "value",
          "type": "uint256"
        },
        {
          "indexed": false,
          "internalType": "uint256",
          "name": "timestamp",
          "type": "uint256"
        }
      ],
      "name": "TransferInfo",
      "type": "event"
    },
    {
      "inputs": [],
      "name": "admin",
      "outputs": [
        {
          "internalType": "address",
          "name": "",
          "type": "address"
        }
      ],
      "stateMutability": "view",
      "type": "function"
    },
    {
      "inputs": [
        {
          "internalType": "address",
          "name": "owner",
          "type": "address"
        },
        {
          "internalType": "address",
          "name": "spender",
          "type": "address"
        }
      ],
      "name": "allowance",
      "outputs": [
        {
          "internalType": "uint256",
          "name": "",
          "type": "uint256"
        }
      ],
      "stateMutability": "view",
      "type": "function"
    },
    {
      "inputs": [
        {
          "internalType": "address",
          "name": "spender",
          "type": "address"
        },
        {
          "internalType": "uint256",
          "name": "amount",
          "type": "uint256"
        }
      ],
      "name": "approve",
      "outputs": [
        {
          "internalType": "bool",
          "name": "",
          "type": "bool"
        }
      ],
      "stateMutability": "nonpayable",
      "type": "function"
    },
    {
      "inputs": [
        {
          "internalType": "address",
          "name": "account",
          "type": "address"
        }
      ],
      "name": "balanceOf",
      "outputs": [
        {
          "internalType": "uint256",
          "name": "",
          "type": "uint256"
        }
      ],
      "stateMutability": "view",
      "type": "function"
    },
    {
      "inputs": [],
      "name": "decimals",
      "outputs": [
        {
          "internalType": "uint8",
          "name": "",
          "type": "uint8"
        }
      ],
      "stateMutability": "view",
      "type": "function"
    },
    {
      "inputs": [
        {
          "internalType": "address",
          "name": "spender",
          "type": "address"
        },
        {
          "internalType": "uint256",
          "name": "subtractedValue",
          "type": "uint256"
        }
      ],
      "name": "decreaseAllowance",
      "outputs": [
        {
          "internalType": "bool",
          "name": "",
          "type": "bool"
        }
      ],
      "stateMutability": "nonpayable",
      "type": "function"
    },
    {
      "inputs": [],
      "name": "getTransactionReceiver",
      "outputs": [
        {
          "internalType": "address",
          "name": "",
          "type": "address"
        }
      ],
      "stateMutability": "view",
      "type": "function"
    },
    {
      "inputs": [],
      "name": "getTransactionSender",
      "outputs": [
        {
          "internalType": "address",
          "name": "",
          "type": "address"
        }
      ],
      "stateMutability": "view",
      "type": "function"
    },
    {
      "inputs": [
        {
          "internalType": "address",
          "name": "spender",
          "type": "address"
        },
        {
          "internalType": "uint256",
          "name": "addedValue",
          "type": "uint256"
        }
      ],
      "name": "increaseAllowance",
      "outputs": [
        {
          "internalType": "bool",
          "name": "",
          "type": "bool"
        }
      ],
      "stateMutability": "nonpayable",
      "type": "function"
    },
    {
      "inputs": [],
      "name": "latestTransferHumanReadable",
      "outputs": [
        {
          "internalType": "string",
          "name": "",
          "type": "string"
        }
      ],
      "stateMutability": "view",
      "type": "function"
    },
    {
      "inputs": [],
      "name": "latestTransferTimestamp",
      "outputs": [
        {
          "internalType": "uint256",
          "name": "",
          "type": "uint256"
        }
      ],
      "stateMutability": "view",
      "type": "function"
    },
    {
      "inputs": [],
      "name": "name",
      "outputs": [
        {
          "internalType": "string",
          "name": "",
          "type": "string"
        }
      ],
      "stateMutability": "view",
      "type": "function"
    },
    {
      "inputs": [],
      "name": "receiver",
      "outputs": [
        {
          "internalType": "address",
          "name": "",
          "type": "address"
        }
      ],
      "stateMutability": "view",
      "type": "function"
    },
    {
      "inputs": [],
      "name": "sender",
      "outputs": [
        {
          "internalType": "address",
          "name": "",
          "type": "address"
        }
      ],
      "stateMutability": "view",
      "type": "function"
    },
    {
      "inputs": [],
      "name": "symbol",
      "outputs": [
        {
          "internalType": "string",
          "name": "",
          "type": "string"
        }
      ],
      "stateMutability": "view",
      "type": "function"
    },
    {
      "inputs": [],
      "name": "totalSupply",
      "outputs": [
        {
          "internalType": "uint256",
          "name": "",
          "type": "uint256"
        }
      ],
      "stateMutability": "view",
      "type": "function"
    },
    {
      "inputs": [
        {
          "internalType": "address",
          "name": "recipient",
          "type": "address"
        },
        {
          "internalType": "uint256",
          "name": "amount",
          "type": "uint256"
        }
      ],
      "name": "transfer",
      "outputs": [
        {
          "internalType": "bool",
          "name": "",
          "type": "bool"
        }
      ],
      "stateMutability": "nonpayable",
      "type": "function"
    },
    {
      "inputs": [
        {
          "internalType": "address",
          "name": "from",
          "type": "address"
        },
        {
          "internalType": "address",
          "name": "to",
          "type": "address"
        },
        {
          "internalType": "uint256",
          "name": "amount",
          "type": "uint256"
        }
      ],
      "name": "transferFrom",
      "outputs": [
        {
          "internalType": "bool",
          "name": "",
          "type": "bool"
        }
      ],
      "stateMutability": "nonpayable",
      "type": "function"
    }
  ],
  "bytecode": "0x60806040523480156200001157600080fd5b506040518060400160405280600e81526020017f414954552d4441412d546f6b656e0000000000000000000000000000000000008152506040518060400160405280600381526020017f444141000000000000000000000000000000000000000000000000000000000081525081600390816200008f919062000528565b508060049081620000a1919062000528565b5050506000620000b66200012e60201b60201c565b600a620000c491906200079f565b60c8620000d29190620007f0565b9050620000e633826200013760201b60201c565b33600560006101000a81548173ffffffffffffffffffffffffffffffffffffffff021916908373ffffffffffffffffffffffffffffffffffffffff1602179055505062000927565b60006012905090565b600073ffffffffffffffffffffffffffffffffffffffff168273ffffffffffffffffffffffffffffffffffffffff1603620001a9576040517f08c379a0000000000000000000000000000000000000000000000000000000008152600401620001a0906200089c565b60405180910390fd5b620001bd60008383620002a460201b60201c565b8060026000828254620001d19190620008be565b92505081905550806000808473ffffffffffffffffffffffffffffffffffffffff1673ffffffffffffffffffffffffffffffffffffffff168152602001908152602001600020600082825401925050819055508173ffffffffffffffffffffffffffffffffffffffff16600073ffffffffffffffffffffffffffffffffffffffff167fddf252ad1be2c89b69c2b068fc378daa952ba7f163c4a11628f55a4df523b3ef836040516200028491906200090a565b60405180910390a3620002a060008383620002a960201b60201c565b5050565b505050565b505050565b600081519050919050565b7f4e487b7100000000000000000000000000000000000000000000000000000000600052604160045260246000fd5b7f4e487b7100000000000000000000000000000000000000000000000000000000600052602260045260246000fd5b600060028204905060018216806200033057607f821691505b602082108103620003465762000345620002e8565b5b50919050565b60008190508160005260206000209050919050565b60006020601f8301049050919050565b600082821b905092915050565b600060088302620003b07fffffffffffffffffffffffffffffffffffffffffffffffffffffffffffffffff8262000371565b620003bc868362000371565b95508019841693508086168417925050509392505050565b6000819050919050565b6000819050919050565b60006200040962000403620003fd84620003d4565b620003de565b620003d4565b9050919050565b6000819050919050565b6200042583620003e8565b6200043d620004348262000410565b8484546200037e565b825550505050565b600090565b6200045462000445565b620004618184846200041a565b505050565b5b8181101562000489576200047d6000826200044a565b60018101905062000467565b5050565b601f821115620004d857620004a2816200034c565b620004ad8462000361565b81016020851015620004bd578190505b620004d5620004cc8562000361565b83018262000466565b50505b505050565b600082821c905092915050565b6000620004fd60001984600802620004dd565b1980831691505092915050565b6000620005188383620004ea565b9150826002028217905092915050565b6200053382620002ae565b67ffffffffffffffff8111156200054f576200054e620002b9565b5b6200055b825462000317565b620005688282856200048d565b600060209050601f831160018114620005a057600084156200058b578287015190505b6200059785826200050a565b86555062000607565b601f198416620005b0866200034c565b60005b82811015620005da57848901518255600182019150602085019450602081019050620005b3565b86831015620005fa5784890151620005f6601f891682620004ea565b8355505b6001600288020188555050505b505050505050565b7f4e487b7100000000000000000000000000000000000000000000000000000000600052601160045260246000fd5b60008160011c9050919050565b6000808291508390505b60018511156200069d578086048111156200067557620006746200060f565b5b6001851615620006855780820291505b808102905062000695856200063e565b945062000655565b94509492505050565b600082620006b857600190506200078b565b81620006c857600090506200078b565b8160018114620006e15760028114620006ec5762000722565b60019150506200078b565b60ff8411156200070157620007006200060f565b5b8360020a9150848211156200071b576200071a6200060f565b5b506200078b565b5060208310610133831016604e8410600b84101617156200075c5782820a9050838111156200075657620007556200060f565b5b6200078b565b6200076b84848460016200064b565b925090508184048111156200078557620007846200060f565b5b81810290505b9392505050565b600060ff82169050919050565b6000620007ac82620003d4565b9150620007b98362000792565b9250620007e87fffffffffffffffffffffffffffffffffffffffffffffffffffffffffffffffff8484620006a6565b905092915050565b6000620007fd82620003d4565b91506200080a83620003d4565b92508282026200081a81620003d4565b915082820484148315176200083457620008336200060f565b5b5092915050565b600082825260208201905092915050565b7f45524332303a206d696e7420746f20746865207a65726f206164647265737300600082015250565b600062000884601f836200083b565b915062000891826200084c565b602082019050919050565b60006020820190508181036000830152620008b78162000875565b9050919050565b6000620008cb82620003d4565b9150620008d883620003d4565b9250828201905080821115620008f357620008f26200060f565b5b92915050565b6200090481620003d4565b82525050565b6000602082019050620009216000830184620008f9565b92915050565b611a0580620009376000396000f3fe608060405234801561001057600080fd5b50600436106101165760003560e01c8063841b39fc116100a2578063a9059cbb11610071578063a9059cbb146102fb578063bead3f501461032b578063dd62ed3e14610349578063f7260d3e14610379578063f851a4401461039757610116565b8063841b39fc1461027157806395d89b411461028f5780639cb641dd146102ad578063a457c2d7146102cb57610116565b806323b872dd116100e957806323b872dd146101a5578063313ce567146101d557806339509351146101f357806367e404ce1461022357806370a082311461024157610116565b8063035d65621461011b57806306fdde0314610139578063095ea7b31461015757806318160ddd14610187575b600080fd5b6101236103b5565b6040516101309190611016565b60405180910390f35b6101416103c7565b60405161014e9190611016565b60405180910390f35b610171600480360381019061016c91906110d1565b610459565b60405161017e919061112c565b60405180910390f35b61018f61047c565b60405161019c9190611156565b60405180910390f35b6101bf60048036038101906101ba9190611171565b610486565b6040516101cc919061112c565b60405180910390f35b6101dd6104b5565b6040516101ea91906111e0565b60405180910390f35b61020d600480360381019061020891906110d1565b6104be565b60405161021a919061112c565b60405180910390f35b61022b6104f5565b604051610238919061120a565b60405180910390f35b61025b60048036038101906102569190611225565b61051b565b6040516102689190611156565b60405180910390f35b610279610563565b604051610286919061120a565b60405180910390f35b61029761058d565b6040516102a49190611016565b60405180910390f35b6102b561061f565b6040516102c29190611156565b60405180910390f35b6102e560048036038101906102e091906110d1565b610625565b6040516102f2919061112c565b60405180910390f35b610315600480360381019061031091906110d1565b61069c565b604051610322919061112c565b60405180910390f35b6103336107b2565b604051610340919061120a565b60405180910390f35b610363600480360381019061035e9190611252565b6107dc565b6040516103709190611156565b60405180910390f35b610381610863565b60405161038e919061120a565b60405180910390f35b61039f610889565b6040516103ac919061120a565b60405180910390f35b60606103c26008546108af565b905090565b6060600380546103d6906112c1565b80601f0160208091040260200160405190810160405280929190818152602001828054610402906112c1565b801561044f5780601f106104245761010080835404028352916020019161044f565b820191906000526020600020905b81548152906001019060200180831161043257829003601f168201915b5050505050905090565b600080610464610926565b905061047181858561092e565b600191505092915050565b6000600254905090565b600080610491610926565b905061049e858285610af7565b6104a9858585610b83565b60019150509392505050565b60006012905090565b6000806104c9610926565b90506104ea8185856104db85896107dc565b6104e59190611321565b61092e565b600191505092915050565b600760009054906101000a900473ffffffffffffffffffffffffffffffffffffffff1681565b60008060008373ffffffffffffffffffffffffffffffffffffffff1673ffffffffffffffffffffffffffffffffffffffff168152602001908152602001600020549050919050565b6000600660009054906101000a900473ffffffffffffffffffffffffffffffffffffffff16905090565b60606004805461059c906112c1565b80601f01602080910402602001604051908101604052809291908181526020018280546105c8906112c1565b80156106155780601f106105ea57610100808354040283529160200191610615565b820191906000526020600020905b8154815290600101906020018083116105f857829003601f168201915b5050505050905090565b60085481565b600080610630610926565b9050600061063e82866107dc565b905083811015610683576040517f08c379a000000000000000000000000000000000000000000000000000000000815260040161067a906113c7565b60405180910390fd5b610690828686840361092e565b60019250505092915050565b6000806106a98484610df9565b905080156107a85733600760006101000a81548173ffffffffffffffffffffffffffffffffffffffff021916908373ffffffffffffffffffffffffffffffffffffffff16021790555083600660006101000a81548173ffffffffffffffffffffffffffffffffffffffff021916908373ffffffffffffffffffffffffffffffffffffffff16021790555060004290508473ffffffffffffffffffffffffffffffffffffffff163373ffffffffffffffffffffffffffffffffffffffff167f6f677712e2b248fc051cf6aa738a10e5f547b760d9e5adc66516ad7d2bf4d36386846040516107979291906113e7565b60405180910390a380600881905550505b8091505092915050565b6000600760009054906101000a900473ffffffffffffffffffffffffffffffffffffffff16905090565b6000600160008473ffffffffffffffffffffffffffffffffffffffff1673ffffffffffffffffffffffffffffffffffffffff16815260200190815260200160002060008373ffffffffffffffffffffffffffffffffffffffff1673ffffffffffffffffffffffffffffffffffffffff16815260200190815260200160002054905092915050565b600660009054906101000a900473ffffffffffffffffffffffffffffffffffffffff1681565b600560009054906101000a900473ffffffffffffffffffffffffffffffffffffffff1681565b606060006018610e10846108c3919061143f565b6108cd9190611470565b90506000603c80856108df919061143f565b6108e99190611470565b90506108f482610e1c565b6108fd82610e1c565b60405160200161090e929190611575565b60405160208183030381529060405292505050919050565b600033905090565b600073ffffffffffffffffffffffffffffffffffffffff168373ffffffffffffffffffffffffffffffffffffffff160361099d576040517f08c379a000000000000000000000000000000000000000000000000000000000815260040161099490611621565b60405180910390fd5b600073ffffffffffffffffffffffffffffffffffffffff168273ffffffffffffffffffffffffffffffffffffffff1603610a0c576040517f08c379a0000000000000000000000000000000000000000000000000000000008152600401610a03906116b3565b60405180910390fd5b80600160008573ffffffffffffffffffffffffffffffffffffffff1673ffffffffffffffffffffffffffffffffffffffff16815260200190815260200160002060008473ffffffffffffffffffffffffffffffffffffffff1673ffffffffffffffffffffffffffffffffffffffff168152602001908152602001600020819055508173ffffffffffffffffffffffffffffffffffffffff168373ffffffffffffffffffffffffffffffffffffffff167f8c5be1e5ebec7d5bd14f71427d1e84f3dd0314c0f7b2291e5b200ac8c7c3b92583604051610aea9190611156565b60405180910390a3505050565b6000610b0384846107dc565b90507fffffffffffffffffffffffffffffffffffffffffffffffffffffffffffffffff8114610b7d5781811015610b6f576040517f08c379a0000000000000000000000000000000000000000000000000000000008152600401610b669061171f565b60405180910390fd5b610b7c848484840361092e565b5b50505050565b600073ffffffffffffffffffffffffffffffffffffffff168373ffffffffffffffffffffffffffffffffffffffff1603610bf2576040517f08c379a0000000000000000000000000000000000000000000000000000000008152600401610be9906117b1565b60405180910390fd5b600073ffffffffffffffffffffffffffffffffffffffff168273ffffffffffffffffffffffffffffffffffffffff1603610c61576040517f08c379a0000000000000000000000000000000000000000000000000000000008152600401610c5890611843565b60405180910390fd5b610c6c838383610f7c565b60008060008573ffffffffffffffffffffffffffffffffffffffff1673ffffffffffffffffffffffffffffffffffffffff16815260200190815260200160002054905081811015610cf2576040517f08c379a0000000000000000000000000000000000000000000000000000000008152600401610ce9906118d5565b60405180910390fd5b8181036000808673ffffffffffffffffffffffffffffffffffffffff1673ffffffffffffffffffffffffffffffffffffffff16815260200190815260200160002081905550816000808573ffffffffffffffffffffffffffffffffffffffff1673ffffffffffffffffffffffffffffffffffffffff168152602001908152602001600020600082825401925050819055508273ffffffffffffffffffffffffffffffffffffffff168473ffffffffffffffffffffffffffffffffffffffff167fddf252ad1be2c89b69c2b068fc378daa952ba7f163c4a11628f55a4df523b3ef84604051610de09190611156565b60405180910390a3610df3848484610f81565b50505050565b600080610e04610926565b9050610e11818585610b83565b600191505092915050565b606060008203610e63576040518060400160405280600181526020017f30000000000000000000000000000000000000000000000000000000000000008152509050610f77565b600082905060005b60008214610e95578080610e7e906118f5565b915050600a82610e8e919061143f565b9150610e6b565b60008167ffffffffffffffff811115610eb157610eb061193d565b5b6040519080825280601f01601f191660200182016040528015610ee35781602001600182028036833780820191505090505b5090505b60008514610f7057600182610efc919061196c565b9150600a85610f0b9190611470565b6030610f179190611321565b60f81b818381518110610f2d57610f2c6119a0565b5b60200101907effffffffffffffffffffffffffffffffffffffffffffffffffffffffffffff1916908160001a905350600a85610f69919061143f565b9450610ee7565b8093505050505b919050565b505050565b505050565b600081519050919050565b600082825260208201905092915050565b60005b83811015610fc0578082015181840152602081019050610fa5565b60008484015250505050565b6000601f19601f8301169050919050565b6000610fe882610f86565b610ff28185610f91565b9350611002818560208601610fa2565b61100b81610fcc565b840191505092915050565b600060208201905081810360008301526110308184610fdd565b905092915050565b600080fd5b600073ffffffffffffffffffffffffffffffffffffffff82169050919050565b60006110688261103d565b9050919050565b6110788161105d565b811461108357600080fd5b50565b6000813590506110958161106f565b92915050565b6000819050919050565b6110ae8161109b565b81146110b957600080fd5b50565b6000813590506110cb816110a5565b92915050565b600080604083850312156110e8576110e7611038565b5b60006110f685828601611086565b9250506020611107858286016110bc565b9150509250929050565b60008115159050919050565b61112681611111565b82525050565b6000602082019050611141600083018461111d565b92915050565b6111508161109b565b82525050565b600060208201905061116b6000830184611147565b92915050565b60008060006060848603121561118a57611189611038565b5b600061119886828701611086565b93505060206111a986828701611086565b92505060406111ba868287016110bc565b9150509250925092565b600060ff82169050919050565b6111da816111c4565b82525050565b60006020820190506111f560008301846111d1565b92915050565b6112048161105d565b82525050565b600060208201905061121f60008301846111fb565b92915050565b60006020828403121561123b5761123a611038565b5b600061124984828501611086565b91505092915050565b6000806040838503121561126957611268611038565b5b600061127785828601611086565b925050602061128885828601611086565b9150509250929050565b7f4e487b7100000000000000000000000000000000000000000000000000000000600052602260045260246000fd5b600060028204905060018216806112d957607f821691505b6020821081036112ec576112eb611292565b5b50919050565b7f4e487b7100000000000000000000000000000000000000000000000000000000600052601160045260246000fd5b600061132c8261109b565b91506113378361109b565b925082820190508082111561134f5761134e6112f2565b5b92915050565b7f45524332303a2064656372656173656420616c6c6f77616e63652062656c6f7760008201527f207a65726f000000000000000000000000000000000000000000000000000000602082015250565b60006113b1602583610f91565b91506113bc82611355565b604082019050919050565b600060208201905081810360008301526113e0816113a4565b9050919050565b60006040820190506113fc6000830185611147565b6114096020830184611147565b9392505050565b7f4e487b7100000000000000000000000000000000000000000000000000000000600052601260045260246000fd5b600061144a8261109b565b91506114558361109b565b92508261146557611464611410565b5b828204905092915050565b600061147b8261109b565b91506114868361109b565b92508261149657611495611410565b5b828206905092915050565b600081905092915050565b7f4c6174657374207472616e736665722074696d657374616d703a200000000000600082015250565b60006114e2601b836114a1565b91506114ed826114ac565b601b82019050919050565b600061150382610f86565b61150d81856114a1565b935061151d818560208601610fa2565b80840191505092915050565b7f3a00000000000000000000000000000000000000000000000000000000000000600082015250565b600061155f6001836114a1565b915061156a82611529565b600182019050919050565b6000611580826114d5565b915061158c82856114f8565b915061159782611552565b91506115a382846114f8565b91508190509392505050565b7f45524332303a20617070726f76652066726f6d20746865207a65726f2061646460008201527f7265737300000000000000000000000000000000000000000000000000000000602082015250565b600061160b602483610f91565b9150611616826115af565b604082019050919050565b6000602082019050818103600083015261163a816115fe565b9050919050565b7f45524332303a20617070726f766520746f20746865207a65726f20616464726560008201527f7373000000000000000000000000000000000000000000000000000000000000602082015250565b600061169d602283610f91565b91506116a882611641565b604082019050919050565b600060208201905081810360008301526116cc81611690565b9050919050565b7f45524332303a20696e73756666696369656e7420616c6c6f77616e6365000000600082015250565b6000611709601d83610f91565b9150611714826116d3565b602082019050919050565b60006020820190508181036000830152611738816116fc565b9050919050565b7f45524332303a207472616e736665722066726f6d20746865207a65726f20616460008201527f6472657373000000000000000000000000000000000000000000000000000000602082015250565b600061179b602583610f91565b91506117a68261173f565b604082019050919050565b600060208201905081810360008301526117ca8161178e565b9050919050565b7f45524332303a207472616e7366657220746f20746865207a65726f206164647260008201527f6573730000000000000000000000000000000000000000000000000000000000602082015250565b600061182d602383610f91565b9150611838826117d1565b604082019050919050565b6000602082019050818103600083015261185c81611820565b9050919050565b7f45524332303a207472616e7366657220616d6f756e742065786365656473206260008201527f616c616e63650000000000000000000000000000000000000000000000000000602082015250565b60006118bf602683610f91565b91506118ca82611863565b604082019050919050565b600060208201905081810360008301526118ee816118b2565b9050919050565b60006119008261109b565b91507fffffffffffffffffffffffffffffffffffffffffffffffffffffffffffffffff8203611932576119316112f2565b5b600182019050919050565b7f4e487b7100000000000000000000000000000000000000000000000000000000600052604160045260246000fd5b60006119778261109b565b91506119828361109b565b925082820390508181111561199a576119996112f2565b5b92915050565b7f4e487b7100000000000000000000000000000000000000000000000000000000600052603260045260246000fdfea2646970667358221220f8328d46bc82313123aed4c9c7cb13d1e8e211a4be418dea7b5f7082791965f464736f6c63430008110033",
  "linkReferences": {},
  "deployedLinkReferences": {}
}